{
  "contractName": "LinkStorage",
  "abi": [
    {
      "constant": false,
      "inputs": [
        {
          "name": "url",
          "type": "string"
        },
        {
          "name": "label",
          "type": "string"
        },
        {
          "name": "description",
          "type": "string"
        },
        {
          "name": "hashtags",
          "type": "string"
        }
      ],
      "name": "addLink",
      "outputs": [],
      "payable": false,
      "stateMutability": "nonpayable",
      "type": "function"
    },
    {
      "constant": false,
      "inputs": [],
      "name": "kill",
      "outputs": [],
      "payable": false,
      "stateMutability": "nonpayable",
      "type": "function"
    },
    {
      "constant": true,
      "inputs": [],
      "name": "getLinksCount",
      "outputs": [
        {
          "name": "count",
          "type": "uint256"
        }
      ],
      "payable": false,
      "stateMutability": "view",
      "type": "function"
    },
    {
      "constant": true,
      "inputs": [
        {
          "name": "index",
          "type": "uint256"
        }
      ],
      "name": "getLinkAt",
      "outputs": [
        {
          "name": "exists",
          "type": "bool"
        },
        {
          "name": "url",
          "type": "string"
        },
        {
          "name": "label",
          "type": "string"
        },
        {
          "name": "description",
          "type": "string"
        },
        {
          "name": "hashtags",
          "type": "string"
        },
        {
          "name": "timestamp",
          "type": "uint256"
        }
      ],
      "payable": false,
      "stateMutability": "view",
      "type": "function"
    },
    {
      "payable": true,
      "stateMutability": "payable",
      "type": "fallback"
    }
  ],
  "bytecode": "0x6060604052336000806101000a81548173ffffffffffffffffffffffffffffffffffffffff021916908373ffffffffffffffffffffffffffffffffffffffff160217905550610aef806100536000396000f300606060405260043610610062576000357c0100000000000000000000000000000000000000000000000000000000900463ffffffff16806312035531146100c557806341c0e1b51461012f57806355baa67f14610144578063a8938f161461016d575b6000809054906101000a900473ffffffffffffffffffffffffffffffffffffffff1673ffffffffffffffffffffffffffffffffffffffff166108fc349081150290604051600060405180830381858888f1935050505015156100c357600080fd5b005b34156100d057600080fd5b61012d6004808035906020019082018035906020019190919290803590602001908201803590602001919091929080359060200190820180359060200191909192908035906020019082018035906020019190919290505061035f565b005b341561013a57600080fd5b610142610503565b005b341561014f57600080fd5b610157610594565b6040518082815260200191505060405180910390f35b341561017857600080fd5b61018e60048080359060200190919050506105a1565b60405180871515151581526020018060200180602001806020018060200186815260200185810385528a818151815260200191508051906020019080838360005b838110156101ea5780820151818401526020810190506101cf565b50505050905090810190601f1680156102175780820380516001836020036101000a031916815260200191505b50858103845289818151815260200191508051906020019080838360005b83811015610250578082015181840152602081019050610235565b50505050905090810190601f16801561027d5780820380516001836020036101000a031916815260200191505b50858103835288818151815260200191508051906020019080838360005b838110156102b657808201518184015260208101905061029b565b50505050905090810190601f1680156102e35780820380516001836020036101000a031916815260200191505b50858103825287818151815260200191508051906020019080838360005b8381101561031c578082015181840152602081019050610301565b50505050905090810190601f1680156103495780820380516001836020036101000a031916815260200191505b509a505050505050505050505060405180910390f35b6001805480600101828161037391906108cd565b9160005260206000209060050201600060a0604051908101604052808c8c8080601f01602080910402602001604051908101604052809392919081815260200183838082843782019150505050505081526020018a8a8080601f016020809104026020016040519081016040528093929190818152602001838380828437820191505050505050815260200188888080601f016020809104026020016040519081016040528093929190818152602001838380828437820191505050505050815260200186868080601f016020809104026020016040519081016040528093929190818152602001838380828437820191505050505050815260200142815250909190915060008201518160000190805190602001906104949291906108ff565b5060208201518160010190805190602001906104b19291906108ff565b5060408201518160020190805190602001906104ce9291906108ff565b5060608201518160030190805190602001906104eb9291906108ff565b50608082015181600401555050505050505050505050565b6000809054906101000a900473ffffffffffffffffffffffffffffffffffffffff1673ffffffffffffffffffffffffffffffffffffffff163373ffffffffffffffffffffffffffffffffffffffff161415610592576000809054906101000a900473ffffffffffffffffffffffffffffffffffffffff1673ffffffffffffffffffffffffffffffffffffffff16ff5b565b6000600180549050905090565b60006105ab61097f565b6105b361097f565b6105bb61097f565b6105c361097f565b60006105cd610993565b600096506001805490508810156108c3576001888154811015156105ed57fe5b906000526020600020906005020160a06040519081016040529081600082018054600181600116156101000203166002900480601f0160208091040260200160405190810160405280929190818152602001828054600181600116156101000203166002900480156106a05780601f10610675576101008083540402835291602001916106a0565b820191906000526020600020905b81548152906001019060200180831161068357829003601f168201915b50505050508152602001600182018054600181600116156101000203166002900480601f0160208091040260200160405190810160405280929190818152602001828054600181600116156101000203166002900480156107425780601f1061071757610100808354040283529160200191610742565b820191906000526020600020905b81548152906001019060200180831161072557829003601f168201915b50505050508152602001600282018054600181600116156101000203166002900480601f0160208091040260200160405190810160405280929190818152602001828054600181600116156101000203166002900480156107e45780601f106107b9576101008083540402835291602001916107e4565b820191906000526020600020905b8154815290600101906020018083116107c757829003601f168201915b50505050508152602001600382018054600181600116156101000203166002900480601f0160208091040260200160405190810160405280929190818152602001828054600181600116156101000203166002900480156108865780601f1061085b57610100808354040283529160200191610886565b820191906000526020600020905b81548152906001019060200180831161086957829003601f168201915b5050505050815260200160048201548152505090506001965080600001519550806020015194508060400151935080606001519250806080015191505b5091939550919395565b8154818355818115116108fa576005028160050283600052602060002091820191016108f991906109db565b5b505050565b828054600181600116156101000203166002900490600052602060002090601f016020900481019282601f1061094057805160ff191683800117855561096e565b8280016001018555821561096e579182015b8281111561096d578251825591602001919060010190610952565b5b50905061097b9190610a42565b5090565b602060405190810160405280600081525090565b60a0604051908101604052806109a7610a67565b81526020016109b4610a67565b81526020016109c1610a67565b81526020016109ce610a67565b8152602001600081525090565b610a3f91905b80821115610a3b57600080820160006109fa9190610a7b565b600182016000610a0a9190610a7b565b600282016000610a1a9190610a7b565b600382016000610a2a9190610a7b565b6004820160009055506005016109e1565b5090565b90565b610a6491905b80821115610a60576000816000905550600101610a48565b5090565b90565b602060405190810160405280600081525090565b50805460018160011615610100020316600290046000825580601f10610aa15750610ac0565b601f016020900490600052602060002090810190610abf9190610a42565b5b505600a165627a7a72305820368989e5f068032a58c14fedf8face91dcfdcb6fdcc5a807a0a4c698367f94d60029",
  "source": "pragma solidity ^0.4.18;\n\nimport \"./utils/Mortal.sol\";\n\ncontract LinkStorage is Mortal{\n  struct Link {\n    string url;\n    string label;\n    string description;\n    string hashtags;\n    uint timestamp;\n  }\n\n  Link[] links;\n\n  function addLink(\n    string url,\n    string label,\n    string description,\n    string hashtags\n  ) external {\n    links.push(Link(url, label, description, hashtags, now));\n  }\n\n  function getLinksCount() external view returns (uint count) {\n    count = links.length;\n  }\n\n  function getLinkAt(uint index) external view returns (\n    bool exists,\n    string url,\n    string label,\n    string description,\n    string hashtags,\n    uint timestamp\n  ) {\n    exists = false;\n    if (index < links.length) {\n      Link memory link = links[index];\n\n      exists = true;\n      url = link.url;\n      label = link.label;\n      description = link.description;\n      hashtags = link.hashtags;\n      timestamp = link.timestamp;\n    }\n  }\n\n  function () external payable {\n    owner.transfer(msg.value);\n  }\n}\n",
  "sourcePath": "/home/danil/eth.ly/smart-contract/contracts/LinkStorage.sol",
  "compiler": {
    "name": "solc",
    "version": "0.4.18+commit.9cf6e910.Emscripten.clang"
  },
  "schemaVersion": "1.0.1",
  "updatedAt": "2017-11-28T15:49:37.095Z"
}